{
  "_format": "hh-sol-artifact-1",
  "contractName": "SimpleZKBadge",
  "sourceName": "contracts/SimpleZKBadge.sol",
  "abi": [
    {
      "inputs": [],
      "stateMutability": "nonpayable",
      "type": "constructor"
    },
    {
      "anonymous": false,
      "inputs": [
        {
          "indexed": true,
          "internalType": "address",
          "name": "owner",
          "type": "address"
        },
        {
          "indexed": true,
          "internalType": "address",
          "name": "approved",
          "type": "address"
        },
        {
          "indexed": true,
          "internalType": "uint256",
          "name": "tokenId",
          "type": "uint256"
        }
      ],
      "name": "Approval",
      "type": "event"
    },
    {
      "anonymous": false,
      "inputs": [
        {
          "indexed": true,
          "internalType": "address",
          "name": "owner",
          "type": "address"
        },
        {
          "indexed": true,
          "internalType": "address",
          "name": "operator",
          "type": "address"
        },
        {
          "indexed": false,
          "internalType": "bool",
          "name": "approved",
          "type": "bool"
        }
      ],
      "name": "ApprovalForAll",
      "type": "event"
    },
    {
      "anonymous": false,
      "inputs": [
        {
          "indexed": true,
          "internalType": "uint256",
          "name": "tokenId",
          "type": "uint256"
        },
        {
          "indexed": true,
          "internalType": "address",
          "name": "recipient",
          "type": "address"
        },
        {
          "indexed": false,
          "internalType": "string",
          "name": "badgeType",
          "type": "string"
        }
      ],
      "name": "BadgeIssued",
      "type": "event"
    },
    {
      "anonymous": false,
      "inputs": [
        {
          "indexed": true,
          "internalType": "address",
          "name": "minter",
          "type": "address"
        }
      ],
      "name": "MinterAuthorized",
      "type": "event"
    },
    {
      "anonymous": false,
      "inputs": [
        {
          "indexed": true,
          "internalType": "address",
          "name": "minter",
          "type": "address"
        }
      ],
      "name": "MinterRevoked",
      "type": "event"
    },
    {
      "anonymous": false,
      "inputs": [
        {
          "indexed": true,
          "internalType": "address",
          "name": "previousOwner",
          "type": "address"
        },
        {
          "indexed": true,
          "internalType": "address",
          "name": "newOwner",
          "type": "address"
        }
      ],
      "name": "OwnershipTransferred",
      "type": "event"
    },
    {
      "anonymous": false,
      "inputs": [
        {
          "indexed": true,
          "internalType": "address",
          "name": "from",
          "type": "address"
        },
        {
          "indexed": true,
          "internalType": "address",
          "name": "to",
          "type": "address"
        },
        {
          "indexed": true,
          "internalType": "uint256",
          "name": "tokenId",
          "type": "uint256"
        }
      ],
      "name": "Transfer",
      "type": "event"
    },
    {
      "inputs": [
        {
          "internalType": "address",
          "name": "",
          "type": "address"
        },
        {
          "internalType": "uint256",
          "name": "",
          "type": "uint256"
        }
      ],
      "name": "approve",
      "outputs": [],
      "stateMutability": "nonpayable",
      "type": "function"
    },
    {
      "inputs": [
        {
          "internalType": "address",
          "name": "minter",
          "type": "address"
        }
      ],
      "name": "authorizeMinter",
      "outputs": [],
      "stateMutability": "nonpayable",
      "type": "function"
    },
    {
      "inputs": [
        {
          "internalType": "address",
          "name": "",
          "type": "address"
        }
      ],
      "name": "authorizedMinters",
      "outputs": [
        {
          "internalType": "bool",
          "name": "",
          "type": "bool"
        }
      ],
      "stateMutability": "view",
      "type": "function"
    },
    {
      "inputs": [
        {
          "internalType": "uint256",
          "name": "",
          "type": "uint256"
        }
      ],
      "name": "badges",
      "outputs": [
        {
          "internalType": "uint256",
          "name": "id",
          "type": "uint256"
        },
        {
          "internalType": "address",
          "name": "owner",
          "type": "address"
        },
        {
          "internalType": "string",
          "name": "badgeType",
          "type": "string"
        },
        {
          "internalType": "string",
          "name": "zkProofHash",
          "type": "string"
        },
        {
          "internalType": "uint256",
          "name": "issuedAt",
          "type": "uint256"
        }
      ],
      "stateMutability": "view",
      "type": "function"
    },
    {
      "inputs": [
        {
          "internalType": "address",
          "name": "owner",
          "type": "address"
        }
      ],
      "name": "balanceOf",
      "outputs": [
        {
          "internalType": "uint256",
          "name": "",
          "type": "uint256"
        }
      ],
      "stateMutability": "view",
      "type": "function"
    },
    {
      "inputs": [
        {
          "internalType": "uint256",
          "name": "tokenId",
          "type": "uint256"
        }
      ],
      "name": "getApproved",
      "outputs": [
        {
          "internalType": "address",
          "name": "",
          "type": "address"
        }
      ],
      "stateMutability": "view",
      "type": "function"
    },
    {
      "inputs": [
        {
          "internalType": "address",
          "name": "user",
          "type": "address"
        }
      ],
      "name": "getUserBadges",
      "outputs": [
        {
          "internalType": "uint256[]",
          "name": "",
          "type": "uint256[]"
        }
      ],
      "stateMutability": "view",
      "type": "function"
    },
    {
      "inputs": [
        {
          "internalType": "address",
          "name": "owner",
          "type": "address"
        },
        {
          "internalType": "address",
          "name": "operator",
          "type": "address"
        }
      ],
      "name": "isApprovedForAll",
      "outputs": [
        {
          "internalType": "bool",
          "name": "",
          "type": "bool"
        }
      ],
      "stateMutability": "view",
      "type": "function"
    },
    {
      "inputs": [
        {
          "internalType": "address",
          "name": "recipient",
          "type": "address"
        },
        {
          "internalType": "string",
          "name": "badgeType",
          "type": "string"
        },
        {
          "internalType": "string",
          "name": "zkProofHash",
          "type": "string"
        }
      ],
      "name": "issueBadge",
      "outputs": [
        {
          "internalType": "uint256",
          "name": "",
          "type": "uint256"
        }
      ],
      "stateMutability": "nonpayable",
      "type": "function"
    },
    {
      "inputs": [],
      "name": "name",
      "outputs": [
        {
          "internalType": "string",
          "name": "",
          "type": "string"
        }
      ],
      "stateMutability": "view",
      "type": "function"
    },
    {
      "inputs": [],
      "name": "owner",
      "outputs": [
        {
          "internalType": "address",
          "name": "",
          "type": "address"
        }
      ],
      "stateMutability": "view",
      "type": "function"
    },
    {
      "inputs": [
        {
          "internalType": "uint256",
          "name": "tokenId",
          "type": "uint256"
        }
      ],
      "name": "ownerOf",
      "outputs": [
        {
          "internalType": "address",
          "name": "",
          "type": "address"
        }
      ],
      "stateMutability": "view",
      "type": "function"
    },
    {
      "inputs": [],
      "name": "renounceOwnership",
      "outputs": [],
      "stateMutability": "nonpayable",
      "type": "function"
    },
    {
      "inputs": [
        {
          "internalType": "address",
          "name": "minter",
          "type": "address"
        }
      ],
      "name": "revokeMinter",
      "outputs": [],
      "stateMutability": "nonpayable",
      "type": "function"
    },
    {
      "inputs": [
        {
          "internalType": "address",
          "name": "from",
          "type": "address"
        },
        {
          "internalType": "address",
          "name": "to",
          "type": "address"
        },
        {
          "internalType": "uint256",
          "name": "tokenId",
          "type": "uint256"
        }
      ],
      "name": "safeTransferFrom",
      "outputs": [],
      "stateMutability": "nonpayable",
      "type": "function"
    },
    {
      "inputs": [
        {
          "internalType": "address",
          "name": "from",
          "type": "address"
        },
        {
          "internalType": "address",
          "name": "to",
          "type": "address"
        },
        {
          "internalType": "uint256",
          "name": "tokenId",
          "type": "uint256"
        },
        {
          "internalType": "bytes",
          "name": "data",
          "type": "bytes"
        }
      ],
      "name": "safeTransferFrom",
      "outputs": [],
      "stateMutability": "nonpayable",
      "type": "function"
    },
    {
      "inputs": [
        {
          "internalType": "address",
          "name": "",
          "type": "address"
        },
        {
          "internalType": "bool",
          "name": "",
          "type": "bool"
        }
      ],
      "name": "setApprovalForAll",
      "outputs": [],
      "stateMutability": "nonpayable",
      "type": "function"
    },
    {
      "inputs": [
        {
          "internalType": "bytes4",
          "name": "interfaceId",
          "type": "bytes4"
        }
      ],
      "name": "supportsInterface",
      "outputs": [
        {
          "internalType": "bool",
          "name": "",
          "type": "bool"
        }
      ],
      "stateMutability": "view",
      "type": "function"
    },
    {
      "inputs": [],
      "name": "symbol",
      "outputs": [
        {
          "internalType": "string",
          "name": "",
          "type": "string"
        }
      ],
      "stateMutability": "view",
      "type": "function"
    },
    {
      "inputs": [
        {
          "internalType": "uint256",
          "name": "tokenId",
          "type": "uint256"
        }
      ],
      "name": "tokenURI",
      "outputs": [
        {
          "internalType": "string",
          "name": "",
          "type": "string"
        }
      ],
      "stateMutability": "view",
      "type": "function"
    },
    {
      "inputs": [],
      "name": "totalSupply",
      "outputs": [
        {
          "internalType": "uint256",
          "name": "",
          "type": "uint256"
        }
      ],
      "stateMutability": "view",
      "type": "function"
    },
    {
      "inputs": [
        {
          "internalType": "address",
          "name": "from",
          "type": "address"
        },
        {
          "internalType": "address",
          "name": "to",
          "type": "address"
        },
        {
          "internalType": "uint256",
          "name": "tokenId",
          "type": "uint256"
        }
      ],
      "name": "transferFrom",
      "outputs": [],
      "stateMutability": "nonpayable",
      "type": "function"
    },
    {
      "inputs": [
        {
          "internalType": "address",
          "name": "newOwner",
          "type": "address"
        }
      ],
      "name": "transferOwnership",
      "outputs": [],
      "stateMutability": "nonpayable",
      "type": "function"
    },
    {
      "inputs": [
        {
          "internalType": "address",
          "name": "",
          "type": "address"
        },
        {
          "internalType": "uint256",
          "name": "",
          "type": "uint256"
        }
      ],
      "name": "userBadges",
      "outputs": [
        {
          "internalType": "uint256",
          "name": "",
          "type": "uint256"
        }
      ],
      "stateMutability": "view",
      "type": "function"
    }
  ],
  "bytecode": "0x60806040523480156200001157600080fd5b506040518060400160405280600d81526020016c41757261205a4b20426164676560981b8152506040518060400160405280600481526020016320ad25a160e11b815250816000908162000066919062000193565b50600162000075828262000193565b505050620000926200008c6200009860201b60201c565b6200009c565b6200025f565b3390565b600680546001600160a01b038381166001600160a01b0319831681179093556040519116919082907f8be0079c531659141344cd1fd0a4f28419497f9722a3daafe3b4186f6b6457e090600090a35050565b634e487b7160e01b600052604160045260246000fd5b600181811c908216806200011957607f821691505b6020821081036200013a57634e487b7160e01b600052602260045260246000fd5b50919050565b601f8211156200018e57600081815260208120601f850160051c81016020861015620001695750805b601f850160051c820191505b818110156200018a5782815560010162000175565b5050505b505050565b81516001600160401b03811115620001af57620001af620000ee565b620001c781620001c0845462000104565b8462000140565b602080601f831160018114620001ff5760008415620001e65750858301515b600019600386901b1c1916600185901b1785556200018a565b600085815260208120601f198616915b8281101562000230578886015182559484019460019091019084016200020f565b50858210156200024f5787850151600019600388901b60f8161c191681555b5050505050600190811b01905550565b611a5e806200026f6000396000f3fe608060405234801561001057600080fd5b50600436106101585760003560e01c80638da5cb5b116100c3578063c87b56dd1161007c578063c87b56dd146102f4578063cfbd488514610307578063de2cff031461031a578063df91cc231461032d578063e985e9c514610340578063f2fde38b1461037c57600080fd5b80638da5cb5b1461027357806395d89b411461028457806398e36d8b1461028c578063a22cb465146102b0578063aa2fe91b146102be578063b88d4fde146102e157600080fd5b806323b872dd1161011557806323b872dd146101ff57806337c245fe1461021257806342842e0e146102325780636352211e1461024557806370a0823114610258578063715018a61461026b57600080fd5b806301ffc9a71461015d57806306fdde0314610185578063081812fc1461019a578063095ea7b3146101c55780630c984832146101da57806318160ddd146101ed575b600080fd5b61017061016b366004611378565b61038f565b60405190151581526020015b60405180910390f35b61018d6103e1565b60405161017c91906113e5565b6101ad6101a83660046113f8565b610473565b6040516001600160a01b03909116815260200161017c565b6101d86101d336600461142d565b61049a565b005b6101d86101e8366004611457565b6104e7565b6007545b60405190815260200161017c565b6101d861020d366004611472565b61053b565b610225610220366004611457565b610571565b60405161017c91906114ae565b6101d8610240366004611472565b6105dd565b6101ad6102533660046113f8565b6105f8565b6101f1610266366004611457565b610658565b6101d86106de565b6006546001600160a01b03166101ad565b61018d6106f2565b61029f61029a3660046113f8565b610701565b60405161017c9594939291906114f2565b6101d86101d3366004611541565b6101706102cc366004611457565b60086020526000908152604090205460ff1681565b6101d86102ef366004611609565b61084a565b61018d6103023660046113f8565b610882565b6101d8610315366004611457565b6108f6565b6101f16103283660046116a5565b610947565b6101f161033b36600461142d565b610ad8565b61017061034e366004611719565b6001600160a01b03918216600090815260056020908152604080832093909416825291909152205460ff1690565b6101d861038a366004611457565b610b09565b60006001600160e01b031982166380ac58cd60e01b14806103c057506001600160e01b03198216635b5e139f60e01b145b806103db57506301ffc9a760e01b6001600160e01b03198316145b92915050565b6060600080546103f09061174c565b80601f016020809104026020016040519081016040528092919081815260200182805461041c9061174c565b80156104695780601f1061043e57610100808354040283529160200191610469565b820191906000526020600020905b81548152906001019060200180831161044c57829003601f168201915b5050505050905090565b600061047e82610b82565b506000908152600460205260409020546001600160a01b031690565b60405162461bcd60e51b815260206004820152601f60248201527f536f756c626f756e643a20417070726f76616c206e6f7420616c6c6f7765640060448201526064015b60405180910390fd5b6104ef610be1565b6001600160a01b038116600081815260086020526040808220805460ff19166001179055517f83b05b6735acd4b85e3bded8e72c851d1a87718f81e3c8e6f0c9d9a2baa88e469190a250565b6105453382610c3b565b6105615760405162461bcd60e51b81526004016104de90611786565b61056c838383610cba565b505050565b6001600160a01b0381166000908152600a60209081526040918290208054835181840281018401909452808452606093928301828280156105d157602002820191906000526020600020905b8154815260200190600101908083116105bd575b50505050509050919050565b61056c8383836040518060200160405280600081525061084a565b6000818152600260205260408120546001600160a01b0316806103db5760405162461bcd60e51b8152602060048201526018602482015277115490cdcc8c4e881a5b9d985b1a59081d1bdad95b88125160421b60448201526064016104de565b60006001600160a01b0382166106c25760405162461bcd60e51b815260206004820152602960248201527f4552433732313a2061646472657373207a65726f206973206e6f7420612076616044820152683634b21037bbb732b960b91b60648201526084016104de565b506001600160a01b031660009081526003602052604090205490565b6106e6610be1565b6106f06000610e2b565b565b6060600180546103f09061174c565b60096020526000908152604090208054600182015460028301805492936001600160a01b03909216926107339061174c565b80601f016020809104026020016040519081016040528092919081815260200182805461075f9061174c565b80156107ac5780601f10610781576101008083540402835291602001916107ac565b820191906000526020600020905b81548152906001019060200180831161078f57829003601f168201915b5050505050908060030180546107c19061174c565b80601f01602080910402602001604051908101604052809291908181526020018280546107ed9061174c565b801561083a5780601f1061080f5761010080835404028352916020019161083a565b820191906000526020600020905b81548152906001019060200180831161081d57829003601f168201915b5050505050908060040154905085565b6108543383610c3b565b6108705760405162461bcd60e51b81526004016104de90611786565b61087c84848484610e7d565b50505050565b606061088d82610b82565b60006108a460408051602081019091526000815290565b905060008151116108c457604051806020016040528060008152506108ef565b806108ce84610eb0565b6040516020016108df9291906117d3565b6040516020818303038152906040525b9392505050565b6108fe610be1565b6001600160a01b038116600081815260086020526040808220805460ff19169055517f44f4322f8daa225d5f4877ad0f7d3dfba248a774396f3ca99405ed40a044fe819190a250565b3360009081526008602052604081205460ff168061096f57506006546001600160a01b031633145b6109ac5760405162461bcd60e51b815260206004820152600e60248201526d139bdd08185d5d1a1bdc9a5e995960921b60448201526064016104de565b600780549060006109bc83611802565b90915550506007546040805160a0810182528281526001600160a01b03878116602080840191825283850189815260608501899052426080860152600087815260099092529490208351815590516001820180546001600160a01b031916919093161790915591519091906002820190610a369082611877565b5060608201516003820190610a4b9082611877565b50608091909101516004909101556001600160a01b0385166000908152600a6020908152604082208054600181018255908352912001819055610a8e8582610f43565b846001600160a01b0316817ff9cf250e6bdee04477a4a03a767fdb479180e4c12c19ef561485cb57e211741486604051610ac891906113e5565b60405180910390a3949350505050565b600a6020528160005260406000208181548110610af457600080fd5b90600052602060002001600091509150505481565b610b11610be1565b6001600160a01b038116610b765760405162461bcd60e51b815260206004820152602660248201527f4f776e61626c653a206e6577206f776e657220697320746865207a65726f206160448201526564647265737360d01b60648201526084016104de565b610b7f81610e2b565b50565b6000818152600260205260409020546001600160a01b0316610b7f5760405162461bcd60e51b8152602060048201526018602482015277115490cdcc8c4e881a5b9d985b1a59081d1bdad95b88125160421b60448201526064016104de565b6006546001600160a01b031633146106f05760405162461bcd60e51b815260206004820181905260248201527f4f776e61626c653a2063616c6c6572206973206e6f7420746865206f776e657260448201526064016104de565b600080610c47836105f8565b9050806001600160a01b0316846001600160a01b03161480610c8e57506001600160a01b0380821660009081526005602090815260408083209388168352929052205460ff165b80610cb25750836001600160a01b0316610ca784610473565b6001600160a01b0316145b949350505050565b826001600160a01b0316610ccd826105f8565b6001600160a01b031614610cf35760405162461bcd60e51b81526004016104de90611937565b6001600160a01b038216610d555760405162461bcd60e51b8152602060048201526024808201527f4552433732313a207472616e7366657220746f20746865207a65726f206164646044820152637265737360e01b60648201526084016104de565b610d628383836001610f61565b826001600160a01b0316610d75826105f8565b6001600160a01b031614610d9b5760405162461bcd60e51b81526004016104de90611937565b600081815260046020908152604080832080546001600160a01b03199081169091556001600160a01b0387811680865260038552838620805460001901905590871680865283862080546001019055868652600290945282852080549092168417909155905184937fddf252ad1be2c89b69c2b068fc378daa952ba7f163c4a11628f55a4df523b3ef91a4505050565b600680546001600160a01b038381166001600160a01b0319831681179093556040519116919082907f8be0079c531659141344cd1fd0a4f28419497f9722a3daafe3b4186f6b6457e090600090a35050565b610e88848484610cba565b610e9484848484610fbd565b61087c5760405162461bcd60e51b81526004016104de9061197c565b60606000610ebd836110be565b600101905060008167ffffffffffffffff811115610edd57610edd61157d565b6040519080825280601f01601f191660200182016040528015610f07576020820181803683370190505b5090508181016020015b600019016f181899199a1a9b1b9c1cb0b131b232b360811b600a86061a8153600a8504945084610f1157509392505050565b610f5d828260405180602001604052806000815250611196565b5050565b6001600160a01b03841615610fb85760405162461bcd60e51b815260206004820152601f60248201527f536f756c626f756e643a205472616e73666572206e6f7420616c6c6f7765640060448201526064016104de565b61087c565b60006001600160a01b0384163b156110b357604051630a85bd0160e11b81526001600160a01b0385169063150b7a02906110019033908990889088906004016119ce565b6020604051808303816000875af192505050801561103c575060408051601f3d908101601f1916820190925261103991810190611a0b565b60015b611099573d80801561106a576040519150601f19603f3d011682016040523d82523d6000602084013e61106f565b606091505b5080516000036110915760405162461bcd60e51b81526004016104de9061197c565b805181602001fd5b6001600160e01b031916630a85bd0160e11b149050610cb2565b506001949350505050565b60008072184f03e93ff9f4daa797ed6e38ed64bf6a1f0160401b83106110fd5772184f03e93ff9f4daa797ed6e38ed64bf6a1f0160401b830492506040015b6d04ee2d6d415b85acef81000000008310611129576d04ee2d6d415b85acef8100000000830492506020015b662386f26fc10000831061114757662386f26fc10000830492506010015b6305f5e100831061115f576305f5e100830492506008015b612710831061117357612710830492506004015b60648310611185576064830492506002015b600a83106103db5760010192915050565b6111a083836111c9565b6111ad6000848484610fbd565b61056c5760405162461bcd60e51b81526004016104de9061197c565b6001600160a01b03821661121f5760405162461bcd60e51b815260206004820181905260248201527f4552433732313a206d696e7420746f20746865207a65726f206164647265737360448201526064016104de565b6000818152600260205260409020546001600160a01b0316156112845760405162461bcd60e51b815260206004820152601c60248201527f4552433732313a20746f6b656e20616c7265616479206d696e7465640000000060448201526064016104de565b611292600083836001610f61565b6000818152600260205260409020546001600160a01b0316156112f75760405162461bcd60e51b815260206004820152601c60248201527f4552433732313a20746f6b656e20616c7265616479206d696e7465640000000060448201526064016104de565b6001600160a01b038216600081815260036020908152604080832080546001019055848352600290915280822080546001600160a01b0319168417905551839291907fddf252ad1be2c89b69c2b068fc378daa952ba7f163c4a11628f55a4df523b3ef908290a45050565b6001600160e01b031981168114610b7f57600080fd5b60006020828403121561138a57600080fd5b81356108ef81611362565b60005b838110156113b0578181015183820152602001611398565b50506000910152565b600081518084526113d1816020860160208601611395565b601f01601f19169290920160200192915050565b6020815260006108ef60208301846113b9565b60006020828403121561140a57600080fd5b5035919050565b80356001600160a01b038116811461142857600080fd5b919050565b6000806040838503121561144057600080fd5b61144983611411565b946020939093013593505050565b60006020828403121561146957600080fd5b6108ef82611411565b60008060006060848603121561148757600080fd5b61149084611411565b925061149e60208501611411565b9150604084013590509250925092565b6020808252825182820181905260009190848201906040850190845b818110156114e6578351835292840192918401916001016114ca565b50909695505050505050565b8581526001600160a01b038516602082015260a06040820181905260009061151c908301866113b9565b828103606084015261152e81866113b9565b9150508260808301529695505050505050565b6000806040838503121561155457600080fd5b61155d83611411565b91506020830135801515811461157257600080fd5b809150509250929050565b634e487b7160e01b600052604160045260246000fd5b600067ffffffffffffffff808411156115ae576115ae61157d565b604051601f8501601f19908116603f011681019082821181831017156115d6576115d661157d565b816040528093508581528686860111156115ef57600080fd5b858560208301376000602087830101525050509392505050565b6000806000806080858703121561161f57600080fd5b61162885611411565b935061163660208601611411565b925060408501359150606085013567ffffffffffffffff81111561165957600080fd5b8501601f8101871361166a57600080fd5b61167987823560208401611593565b91505092959194509250565b600082601f83011261169657600080fd5b6108ef83833560208501611593565b6000806000606084860312156116ba57600080fd5b6116c384611411565b9250602084013567ffffffffffffffff808211156116e057600080fd5b6116ec87838801611685565b9350604086013591508082111561170257600080fd5b5061170f86828701611685565b9150509250925092565b6000806040838503121561172c57600080fd5b61173583611411565b915061174360208401611411565b90509250929050565b600181811c9082168061176057607f821691505b60208210810361178057634e487b7160e01b600052602260045260246000fd5b50919050565b6020808252602d908201527f4552433732313a2063616c6c6572206973206e6f7420746f6b656e206f776e6560408201526c1c881bdc88185c1c1c9bdd9959609a1b606082015260800190565b600083516117e5818460208801611395565b8351908301906117f9818360208801611395565b01949350505050565b60006001820161182257634e487b7160e01b600052601160045260246000fd5b5060010190565b601f82111561056c57600081815260208120601f850160051c810160208610156118505750805b601f850160051c820191505b8181101561186f5782815560010161185c565b505050505050565b815167ffffffffffffffff8111156118915761189161157d565b6118a58161189f845461174c565b84611829565b602080601f8311600181146118da57600084156118c25750858301515b600019600386901b1c1916600185901b17855561186f565b600085815260208120601f198616915b82811015611909578886015182559484019460019091019084016118ea565b50858210156119275787850151600019600388901b60f8161c191681555b5050505050600190811b01905550565b60208082526025908201527f4552433732313a207472616e736665722066726f6d20696e636f72726563742060408201526437bbb732b960d91b606082015260800190565b60208082526032908201527f4552433732313a207472616e7366657220746f206e6f6e20455243373231526560408201527131b2b4bb32b91034b6b83632b6b2b73a32b960711b606082015260800190565b6001600160a01b0385811682528416602082015260408101839052608060608201819052600090611a01908301846113b9565b9695505050505050565b600060208284031215611a1d57600080fd5b81516108ef8161136256fea2646970667358221220c7571a0f344984f8267232df4040d7f6fb0ec8e941e4247cdfaef7a0503067a164736f6c63430008130033",
  "linkReferences": {},
  "deployedLinkReferences": {}
}